{
  "_format": "hh-sol-artifact-1",
  "contractName": "MyContract",
  "sourceName": "contracts/MyContract.sol",
  "abi": [
    {
      "inputs": [
        {
          "internalType": "contract MinimalForwarder",
          "name": "forwarder",
          "type": "address"
        }
      ],
      "stateMutability": "nonpayable",
      "type": "constructor"
    },
    {
      "anonymous": false,
      "inputs": [
        {
          "indexed": false,
          "internalType": "uint256",
          "name": "product_id",
          "type": "uint256"
        },
        {
          "indexed": false,
          "internalType": "string",
          "name": "name",
          "type": "string"
        },
        {
          "indexed": false,
          "internalType": "uint256",
          "name": "total_vote",
          "type": "uint256"
        }
      ],
      "name": "AddProduct",
      "type": "event"
    },
    {
      "anonymous": false,
      "inputs": [
        {
          "indexed": false,
          "internalType": "uint256",
          "name": "id",
          "type": "uint256"
        }
      ],
      "name": "Voted",
      "type": "event"
    },
    {
      "inputs": [
        {
          "internalType": "uint256",
          "name": "",
          "type": "uint256"
        }
      ],
      "name": "Products",
      "outputs": [
        {
          "internalType": "string",
          "name": "name",
          "type": "string"
        },
        {
          "internalType": "uint256",
          "name": "vote_count",
          "type": "uint256"
        },
        {
          "internalType": "uint256",
          "name": "id",
          "type": "uint256"
        },
        {
          "internalType": "string",
          "name": "imgUrl",
          "type": "string"
        }
      ],
      "stateMutability": "view",
      "type": "function"
    },
    {
      "inputs": [
        {
          "internalType": "string",
          "name": "_name",
          "type": "string"
        },
        {
          "internalType": "string",
          "name": "_imgUrl",
          "type": "string"
        }
      ],
      "name": "add_product",
      "outputs": [],
      "stateMutability": "nonpayable",
      "type": "function"
    },
    {
      "inputs": [
        {
          "internalType": "uint256",
          "name": "_id",
          "type": "uint256"
        }
      ],
      "name": "add_vote",
      "outputs": [],
      "stateMutability": "nonpayable",
      "type": "function"
    },
    {
      "inputs": [],
      "name": "getProducts",
      "outputs": [
        {
          "components": [
            {
              "internalType": "string",
              "name": "name",
              "type": "string"
            },
            {
              "internalType": "uint256",
              "name": "vote_count",
              "type": "uint256"
            },
            {
              "internalType": "uint256",
              "name": "id",
              "type": "uint256"
            },
            {
              "internalType": "string",
              "name": "imgUrl",
              "type": "string"
            }
          ],
          "internalType": "struct MyContract.Product[]",
          "name": "",
          "type": "tuple[]"
        }
      ],
      "stateMutability": "view",
      "type": "function"
    },
    {
      "inputs": [],
      "name": "getProductsCount",
      "outputs": [
        {
          "internalType": "uint256",
          "name": "",
          "type": "uint256"
        }
      ],
      "stateMutability": "view",
      "type": "function"
    },
    {
      "inputs": [
        {
          "internalType": "address",
          "name": "forwarder",
          "type": "address"
        }
      ],
      "name": "isTrustedForwarder",
      "outputs": [
        {
          "internalType": "bool",
          "name": "",
          "type": "bool"
        }
      ],
      "stateMutability": "view",
      "type": "function"
    },
    {
      "inputs": [],
      "name": "products_count",
      "outputs": [
        {
          "internalType": "uint256",
          "name": "",
          "type": "uint256"
        }
      ],
      "stateMutability": "view",
      "type": "function"
    },
    {
      "inputs": [
        {
          "internalType": "address",
          "name": "",
          "type": "address"
        }
      ],
      "name": "voters",
      "outputs": [
        {
          "internalType": "bool",
          "name": "",
          "type": "bool"
        }
      ],
      "stateMutability": "view",
      "type": "function"
    }
  ],
  "bytecode": "0x60a06040523480156200001157600080fd5b506040516200140e3803806200140e8339818101604052810190620000379190620000f2565b808073ffffffffffffffffffffffffffffffffffffffff1660808173ffffffffffffffffffffffffffffffffffffffff1681525050505062000124565b600080fd5b600073ffffffffffffffffffffffffffffffffffffffff82169050919050565b6000620000a68262000079565b9050919050565b6000620000ba8262000099565b9050919050565b620000cc81620000ad565b8114620000d857600080fd5b50565b600081519050620000ec81620000c1565b92915050565b6000602082840312156200010b576200010a62000074565b5b60006200011b84828501620000db565b91505092915050565b6080516112ce62000140600039600061035801526112ce6000f3fe608060405234801561001057600080fd5b50600436106100885760003560e01c8063c29b2f201161005b578063c29b2f2014610127578063cec8754614610145578063cf99476c14610163578063dba3f6aa1461017f57610088565b806346e5ced91461008d578063572b6c05146100a95780635786fd40146100d9578063a3ec138d146100f7575b600080fd5b6100a760048036038101906100a2919061087b565b6101b2565b005b6100c360048036038101906100be9190610906565b610354565b6040516100d0919061094e565b60405180910390f35b6100e16103ac565b6040516100ee9190610978565b60405180910390f35b610111600480360381019061010c9190610906565b6103b5565b60405161011e919061094e565b60405180910390f35b61012f6103d5565b60405161013c9190610b5e565b60405180910390f35b61014d6105cc565b60405161015a9190610978565b60405180910390f35b61017d60048036038101906101789190610cb5565b6105d2565b005b6101996004803603810190610194919061087b565b6106c9565b6040516101a99493929190610d77565b60405180910390f35b60001515600260003373ffffffffffffffffffffffffffffffffffffffff1673ffffffffffffffffffffffffffffffffffffffff16815260200190815260200160002060009054906101000a900460ff16151514610245576040517f08c379a000000000000000000000000000000000000000000000000000000000815260040161023c90610e16565b60405180910390fd5b60008110158015610257575060005481105b610296576040517f08c379a000000000000000000000000000000000000000000000000000000000815260040161028d90610e82565b60405180910390fd5b6001600260003373ffffffffffffffffffffffffffffffffffffffff1673ffffffffffffffffffffffffffffffffffffffff16815260200190815260200160002060006101000a81548160ff02191690831515021790555060016000828152602001908152602001600020600101600081548092919061031590610ed1565b91905055507f7f511e347bf51eed3be100b3194247d5207f05f3b33de7d31e3e8ee73199a049816040516103499190610978565b60405180910390a150565b60007f000000000000000000000000000000000000000000000000000000000000000073ffffffffffffffffffffffffffffffffffffffff168273ffffffffffffffffffffffffffffffffffffffff16149050919050565b60008054905090565b60026020528060005260406000206000915054906101000a900460ff1681565b60606000805467ffffffffffffffff8111156103f4576103f3610b8a565b5b60405190808252806020026020018201604052801561042d57816020015b61041a610809565b8152602001906001900390816104125790505b50905060005b6000548110156105c4576001600082815260200190815260200160002060405180608001604052908160008201805461046b90610f48565b80601f016020809104026020016040519081016040528092919081815260200182805461049790610f48565b80156104e45780601f106104b9576101008083540402835291602001916104e4565b820191906000526020600020905b8154815290600101906020018083116104c757829003601f168201915b50505050508152602001600182015481526020016002820154815260200160038201805461051190610f48565b80601f016020809104026020016040519081016040528092919081815260200182805461053d90610f48565b801561058a5780601f1061055f5761010080835404028352916020019161058a565b820191906000526020600020905b81548152906001019060200180831161056d57829003601f168201915b5050505050815250508282815181106105a6576105a5610f79565b5b602002602001018190525080806105bc90610ed1565b915050610433565b508091505090565b60005481565b6040518060800160405280838152602001600081526020016000548152602001828152506001600080548152602001908152602001600020600082015181600001908161061f9190611154565b50602082015181600101556040820151816002015560608201518160030190816106499190611154565b5090505060008081548092919061065f90610ed1565b91905055507fc1ad708128f641c4f3203646b08e8bb961856206670108eefbbe9b7ef438dda66000548360016000600160005461069c9190611226565b8152602001908152602001600020600101546040516106bd9392919061125a565b60405180910390a15050565b60016020528060005260406000206000915090508060000180546106ec90610f48565b80601f016020809104026020016040519081016040528092919081815260200182805461071890610f48565b80156107655780601f1061073a57610100808354040283529160200191610765565b820191906000526020600020905b81548152906001019060200180831161074857829003601f168201915b50505050509080600101549080600201549080600301805461078690610f48565b80601f01602080910402602001604051908101604052809291908181526020018280546107b290610f48565b80156107ff5780601f106107d4576101008083540402835291602001916107ff565b820191906000526020600020905b8154815290600101906020018083116107e257829003601f168201915b5050505050905084565b6040518060800160405280606081526020016000815260200160008152602001606081525090565b6000604051905090565b600080fd5b600080fd5b6000819050919050565b61085881610845565b811461086357600080fd5b50565b6000813590506108758161084f565b92915050565b6000602082840312156108915761089061083b565b5b600061089f84828501610866565b91505092915050565b600073ffffffffffffffffffffffffffffffffffffffff82169050919050565b60006108d3826108a8565b9050919050565b6108e3816108c8565b81146108ee57600080fd5b50565b600081359050610900816108da565b92915050565b60006020828403121561091c5761091b61083b565b5b600061092a848285016108f1565b91505092915050565b60008115159050919050565b61094881610933565b82525050565b6000602082019050610963600083018461093f565b92915050565b61097281610845565b82525050565b600060208201905061098d6000830184610969565b92915050565b600081519050919050565b600082825260208201905092915050565b6000819050602082019050919050565b600081519050919050565b600082825260208201905092915050565b60005b838110156109f95780820151818401526020810190506109de565b60008484015250505050565b6000601f19601f8301169050919050565b6000610a21826109bf565b610a2b81856109ca565b9350610a3b8185602086016109db565b610a4481610a05565b840191505092915050565b610a5881610845565b82525050565b60006080830160008301518482036000860152610a7b8282610a16565b9150506020830151610a906020860182610a4f565b506040830151610aa36040860182610a4f565b5060608301518482036060860152610abb8282610a16565b9150508091505092915050565b6000610ad48383610a5e565b905092915050565b6000602082019050919050565b6000610af482610993565b610afe818561099e565b935083602082028501610b10856109af565b8060005b85811015610b4c5784840389528151610b2d8582610ac8565b9450610b3883610adc565b925060208a01995050600181019050610b14565b50829750879550505050505092915050565b60006020820190508181036000830152610b788184610ae9565b905092915050565b600080fd5b600080fd5b7f4e487b7100000000000000000000000000000000000000000000000000000000600052604160045260246000fd5b610bc282610a05565b810181811067ffffffffffffffff82111715610be157610be0610b8a565b5b80604052505050565b6000610bf4610831565b9050610c008282610bb9565b919050565b600067ffffffffffffffff821115610c2057610c1f610b8a565b5b610c2982610a05565b9050602081019050919050565b82818337600083830152505050565b6000610c58610c5384610c05565b610bea565b905082815260208101848484011115610c7457610c73610b85565b5b610c7f848285610c36565b509392505050565b600082601f830112610c9c57610c9b610b80565b5b8135610cac848260208601610c45565b91505092915050565b60008060408385031215610ccc57610ccb61083b565b5b600083013567ffffffffffffffff811115610cea57610ce9610840565b5b610cf685828601610c87565b925050602083013567ffffffffffffffff811115610d1757610d16610840565b5b610d2385828601610c87565b9150509250929050565b600082825260208201905092915050565b6000610d49826109bf565b610d538185610d2d565b9350610d638185602086016109db565b610d6c81610a05565b840191505092915050565b60006080820190508181036000830152610d918187610d3e565b9050610da06020830186610969565b610dad6040830185610969565b8181036060830152610dbf8184610d3e565b905095945050505050565b7f54686520766f74652068617320616c7265616479206265656e20636173746564600082015250565b6000610e00602083610d2d565b9150610e0b82610dca565b602082019050919050565b60006020820190508181036000830152610e2f81610df3565b9050919050565b7f496e76616c6964206f7074696f6e000000000000000000000000000000000000600082015250565b6000610e6c600e83610d2d565b9150610e7782610e36565b602082019050919050565b60006020820190508181036000830152610e9b81610e5f565b9050919050565b7f4e487b7100000000000000000000000000000000000000000000000000000000600052601160045260246000fd5b6000610edc82610845565b91507fffffffffffffffffffffffffffffffffffffffffffffffffffffffffffffffff8203610f0e57610f0d610ea2565b5b600182019050919050565b7f4e487b7100000000000000000000000000000000000000000000000000000000600052602260045260246000fd5b60006002820490506001821680610f6057607f821691505b602082108103610f7357610f72610f19565b5b50919050565b7f4e487b7100000000000000000000000000000000000000000000000000000000600052603260045260246000fd5b60008190508160005260206000209050919050565b60006020601f8301049050919050565b600082821b905092915050565b60006008830261100a7fffffffffffffffffffffffffffffffffffffffffffffffffffffffffffffffff82610fcd565b6110148683610fcd565b95508019841693508086168417925050509392505050565b6000819050919050565b600061105161104c61104784610845565b61102c565b610845565b9050919050565b6000819050919050565b61106b83611036565b61107f61107782611058565b848454610fda565b825550505050565b600090565b611094611087565b61109f818484611062565b505050565b5b818110156110c3576110b860008261108c565b6001810190506110a5565b5050565b601f821115611108576110d981610fa8565b6110e284610fbd565b810160208510156110f1578190505b6111056110fd85610fbd565b8301826110a4565b50505b505050565b600082821c905092915050565b600061112b6000198460080261110d565b1980831691505092915050565b6000611144838361111a565b9150826002028217905092915050565b61115d826109bf565b67ffffffffffffffff81111561117657611175610b8a565b5b6111808254610f48565b61118b8282856110c7565b600060209050601f8311600181146111be57600084156111ac578287015190505b6111b68582611138565b86555061121e565b601f1984166111cc86610fa8565b60005b828110156111f4578489015182556001820191506020850194506020810190506111cf565b86831015611211578489015161120d601f89168261111a565b8355505b6001600288020188555050505b505050505050565b600061123182610845565b915061123c83610845565b925082820390508181111561125457611253610ea2565b5b92915050565b600060608201905061126f6000830186610969565b81810360208301526112818185610d3e565b90506112906040830184610969565b94935050505056fea264697066735822122058aee4e700f1a90c27b3efeba727035bd59a28986fb37e8b1edc99c489db837d64736f6c63430008110033",
  "linkReferences": {},
  "deployedLinkReferences": {}
}